:100000000C9434000C9451000C9451000C94510049
:100010000C9451000C9451000C9451000C9451001C
:100020000C9451000C9451000C9451000C9451000C
:100030000C9451000C9451000C9451000C945100FC
:100040000C9451000C9451000C9451000C945100EC
:100050000C9451000C9451000C9451000C945100DC
:100060000C9451000C94510011241FBECFEFD8E026
:10007000DEBFCDBF11E0A0E0B1E0E0EFF4E002C0F0
:1000800005900D92AC3BB107D9F723E0ACEBB1E0A2
:1000900001C01D92A43BB207E1F70E94FC010C9441
:1000A00076020C9400008FE284B981E58CBD08953E
:1000B0008EBD6111299A0DB407FEFDCF61112998FB
:1000C0000895289A2898289A60E081E20E945800B2
:1000D00060E080E90E94580060E080E20E945800E1
:1000E00060E08CE00E94580060E080E80E945800C8
:1000F00060E080E40C9458000F931F93CF93DF933C
:1001000084359105ECF560337105D4F5FB0177FD7D
:1001100037969C0183E0F595E7958A95E1F7CB0149
:1001200068E070E00E944E0261E070E001C0660F7E
:100130008A95EAF7CF0180648901006894E59E9F63
:10014000E0019F9FD00D1124C20FD31FC454DE4F76
:10015000442319F09881692B03C060959881692325
:10016000688360E00E94580060E0802F0E94580081
:1001700061E08881DF91CF911F910F910C9458001D
:10018000DF91CF911F910F910895CF93DF93C8EF27
:10019000D1E061E080E00E9458002197D1F7DF9123
:1001A000CF910895EF92FF920F931F93CF93DF9318
:1001B000EC018B017A01CB0168E070E00E944E02F5
:1001C000E1E0F0E001C0EE0F8A95EAF7980117FF31
:1001D00002C0295F3F4F83E0359527958A95E1F767
:1001E00044E5429FC001439F900D1124A701480F91
:1001F000591FC40FD51F8881E82381E009F480E0EE
:10020000DF91CF911F910F91FF90EF900895EF92A2
:10021000FF920F931F93CF93DF938C01C0E0D0E048
:10022000F80182859385C817D90764F5E12CF12C74
:10023000F80180859185E816F90614F5F8016281C8
:1002400073816C0F7D1F8081918140E051E08E0DA4
:100250009F1D0E94D200F80166817781248135813B
:100260006C0F7D1F882311F041E001C040E0C70101
:10027000820F931F0E947C00FFEFEF1AFF0AD8CF76
:100280002196CECFDF91CF911F910F91FF90EF90EC
:10029000089590ED980F9A3070F09FEB980F94307E
:1002A00050F09BEB980F9E3048F09DEA980F9830E5
:1002B00040F0803249F080E090E0089584E090E0E2
:1002C000089588E090E008958DE090E00895282F4B
:1002D00080ED820F8A3030F4022E000C330B205355
:1002E00031091FC08FEB820F843030F4022E000CD6
:1002F000330B2753310915C08BEB820F8E3038F446
:10030000822F220F990B9C01255431090AC08DEAD6
:10031000820F883068F4822F220F990B9C0123559D
:10032000310946E0429FC001439F900D112408957A
:10033000203219F080E090E008958BE290E008957B
:10034000AF92BF92CF92DF92EF92FF920F931F93E3
:10035000CF93DF93CDB7DEB72C970FB6F894DEBFFF
:100360000FBECDBF7C01FC01808191819E838D8376
:1003700086E090E09A87898784E090E09C878B876D
:10038000C12CD12CA12CB12CF701048115810A0DAF
:100390001B1DF80180818823F1F00E9467019A8378
:1003A0008983F80180810E9449019C838B83F70136
:1003B000228133812C0D3D1D2450310938872F8334
:1003C000CE0101960E940701FFEFAF1ABF0A84E039
:1003D000C81AD108D9CF2C960FB6F894DEBF0FBE3D
:1003E000CDBFDF91CF911F910F91FF90EF90DF90E4
:1003F000CF90BF90AF900895CF93DF93CDB7DEB786
:10040000A0970FB6F894DEBF0FBECDBF87E0E8EA35
:10041000F1E0DE011E9601900D928A95E1F78DE0E4
:10042000EFEAF1E09E012F5F3F4FD90101900D925D
:100430008A95E1F7CE010E9698A38F8F1C8E1B8EA6
:1004400080E390E09E8F8D8F3A8F298F26E030E0F9
:100450003E8B2D8B988F8F8B2FEF83EC99E0215063
:1004600080409040E1F700C000000E9453000E94CD
:1004700061000E94C500CE014B960E94A001CE01F2
:1004800045960E94A00180E090E0A0960FB6F894F7
:10049000DEBF0FBECDBFDF91CF91089597FB072E32
:1004A00016F4009407D077FD09D00E94620207FC81
:1004B00005D03EF4909581959F4F08957095619574
:1004C0007F4F0895AA1BBB1B51E107C0AA1FBB1F8A
:1004D000A617B70710F0A61BB70B881F991F5A95D0
:1004E000A9F780959095BC01CD010895F894FFCFB0
:1004F000006E8AEA8AEE006484E48484006E82EEF0
:10050000A8EE00AEA2EEA2AE00EA4A4E42E2002EF3
:10051000282EA26E00AEA8CEAAAE008E828282E203
:1005200000AEEAEEAAAE00AEEAEEE2AE0044AAAE3B
:10053000AA4A00CCAAEC8A8E0046A8A8E86E00CC95
:10054000AAEACAAE00464844024E00EE24640444BF
:1005500000AAAA0AAA4600AA4AEA44A4000A0A0E65
:100560000E4A004A4A040A0A00EAEAE4E4E4000EF9
:100570000204080E0006061E1E18180018181E1E7B
:100580000606C0C6F6F6C6C606C6C6C0C6F6F60657
:100590001E1E001E1E1E1E00544554524953005379
:0C05A0004A53552047414D454445560044
:00000001FF
