:100000000C9434000C9449000C9449000C94490061
:100010000C9449000C9449000C9449000C9449003C
:100020000C9449000C9449000C9449000C9449002C
:100030000C9449000C9449000C9449000C9449001C
:100040000C9449000C9449000C9449000C9449000C
:100050000C9449000C9449000C9449000C944900FC
:100060000C9449000C94490011241FBECFEFD8E036
:10007000DEBFCDBF12E0A0E0B1E0ECE4F1E002C0F1
:1000800005900D92A83FB107D9F70E9492000C94F9
:10009000A4000C9400008FE284B981E58CBD089522
:1000A0008EBD6111299A0DB407FEFDCF611129980B
:1000B0000895289A2898289A60E081E20E945000CA
:1000C00060E080E90E94500060E080E20E94500001
:1000D00060E08CE00E94500060E080E80E945000E8
:1000E00060E080E40C9450000F931F93CF93DF9354
:1000F00000E011E0C0E0D0E0F801EC0FFD1F61E08E
:1001000080810E9450002196C435D105A9F70C5A70
:100110001F4F82E0083F180769F7DF91CF911F91C9
:100120000F9108952FEF83EC99E02150804090408B
:10013000E1F700C000000E944B000E9459000E949D
:0C014000740080E090E00895F894FFCF78
:10014C00FFFF0307FF00000000FFFF000000E3F3C8
:10015C00733F3F00002333337FFF00003F3F307875
:10016C00FF00003F3F3373F30000FFFF7373F30096
:10017C000003030307FF0000FFFF737FFF00003F36
:10018C003F337FFF0000FCFC737BFC0000FFFF7320
:10019C0033CC000087876767630000E0E06363800F
:1001AC000000E3E76767630000E2E767676300004E
:1001BC0080806060630000E2E70707E300002367CC
:1001CC00E7E763000000000000E30000E3E7070737
:1001DC00E30000E2E70707030000E3E3C0C0E3002D
:1001EC0000E3E7C7C3E000007F7F60606000007F32
:1001FC007F60707F00007F7F66666600007F7F06F1
:10020C00000000007F7F667E7E00007F7F060F7FF0
:10021C00000060707F7F600000181860707F000025
:10022C007F7F06067900007F7F60606000007F7F23
:10023C00070F7F00007F7F1F3F7F0000F8F8060448
:10024C00F80000FEFEE674780000F0F88684F800F2
:10025C0000FEFEE6F47800001018664686000006E4
:10026C000EFEFE060000FEFC0000FE00007E7C8000
:10027C00807E0000FEFCE0F0FE00001E9C60609E94
:10028C0000001E1CE0E01E00000686666E1E0000CC
:10029C000303C6C601000047C7C0C0C00000C1C3ED
:1002AC00070FC7000047C70303C40000040E0E0E5F
:1002BC000700000000C7C70000000103C6CE0700FE
:1002CC00000080C7C700000047C7030307000007F2
:1002DC00070000C7000000000707000000070FCE52
:1002EC00CEC400000000CF870000000000CC8F0FB0
:1002FC0000003131C0C0330000CCCE3F3FCC0000F9
:10030C000000C08000000000000301000000303835
:10031C00FFFF3000000103FFFF030000C0C03312D9
:10032C000C00000C0C3321C0000000000000000089
:08033C000000000303030000B0
:00000001FF
