:100000000C9434000C9446000C9446000C9446006A
:100010000C9446000C9446000C9446000C94460048
:100020000C9446000C9446000C9446000C94460038
:100030000C9446000C9446000C9446000C94460028
:100040000C9446000C9446000C9446000C94460018
:100050000C9446000C9446000C9446000C94460008
:100060000C9446000C94460011241FBECFEFD8E03C
:10007000DEBFCDBF22E0A0E0B1E001C01D92A83FED
:10008000B207E1F70E94C7000C9423010C94000012
:100090008FE284B981E58CBD08958EBD6111299AE6
:1000A0000DB407FEFDCF611129980895289A28986C
:1000B000289A60E081E20E944D0060E080E90E94A1
:1000C0004D0060E080E20E944D0060E08CE00E9404
:1000D0004D0060E080E80E944D0060E080E40C94F8
:1000E0004D000F931F93CF93DF9384359105ECF56B
:1000F00060337105D4F5FB0177FD37969C0183E0F1
:10010000F595E7958A95E1F7CB0168E070E00E94EC
:10011000FB0061E070E001C0660F8A95EAF7CF014D
:1001200080648901006894E59E9FE0019F9FD00D47
:100130001124C20FD31FC050DF4F442319F0988100
:10014000692B03C0609598816923688360E00E94F1
:100150004D0060E0802F0E944D0061E08881DF91BA
:10016000CF911F910F910C944D00DF91CF911F9172
:100170000F910895CF93DF93C8EFD1E061E080E065
:100180000E944D002197D1F7DF91CF910895EF9212
:10019000FF920F931F93CF93DF932FEF83EC99E0A0
:1001A000215080409040E1F700C000000E944800CC
:1001B0000E9456000E94BA00C0E0D0E000E010E0CB
:1001C0007E012FEFE21AF20A41E0BE01C8010E944F
:1001D00071000E0D1F1D04351105B4F32296C033B6
:1001E000D10561F780E090E0DF91CF911F910F91F1
:1001F000FF90EF90089597FB072E16F4009407D018
:1002000077FD09D00E940F0107FC05D03EF49095C0
:1002100081959F4F0895709561957F4F0895AA1B12
:10022000BB1B51E107C0AA1FBB1FA617B70710F0E1
:10023000A61BB70B881F991F5A95A9F78095909513
:0A024000BC01CD010895F894FFCF32
:00000001FF
