:100000000C9434000C9451000C9451000C94510049
:100010000C9451000C9451000C9451000C9451001C
:100020000C9451000C9451000C9451000C9451000C
:100030000C9451000C9451000C9451000C945100FC
:100040000C9451000C9451000C9451000C945100EC
:100050000C9451000C9451000C9451000C945100DC
:100060000C9451000C94510011241FBECFEFD8E026
:10007000DEBFCDBF11E0A0E0B1E0ECE1F3E002C0F3
:1000800005900D92A83AB107D9F725E0A8EAB1E0AA
:1000900001C01D92A839B207E1F70E9440010C94FB
:1000A0008C010C9400008FE284B981E58CBD089529
:1000B0008EBD6111299A0DB407FEFDCF61112998FB
:1000C0000895289A2898289A60E081E20E945800B2
:1000D00060E080E90E94580060E080E20E945800E1
:1000E00060E08CE00E94580060E080E80E945800C8
:1000F00060E080E40C945800CF93DF939C01CB0127
:100100002435310564F5603371054CF5EB0177FD5D
:10011000279653E0D595C7955A95E1F768E070E0CA
:100120000E94640161E070E0FB0102C0EE0FFF1F5E
:100130008A95E2F7CF0194E59C9FF0019D9FF00D19
:1001400011242E0F3F1FF901E056FC4F442319F0F4
:100150009081892B03C08095908189238083DF91D2
:10016000CF9108950F931F93CF93DF9306E010E094
:10017000C4E5D0E061E080E00E9458002197D1F70B
:1001800001501109A9F7DF91CF911F910F910895A7
:10019000AF92BF92CF92DF92EF92FF920F931F9395
:1001A000CF93DF9328EA31E040EA53E080E090E02B
:1001B000F901E80FF91FDA01A80FB91F70816C91DE
:1001C0006727608301968435910591F72C5A3F4F3C
:1001D0004C5A5F4F83E0203A380741F7C12CD12CAD
:1001E00000E010E0C0E0D0E058016894A6F87E017D
:1001F000EC0CFD1CF701E855FE4F8081882381F04F
:1002000060E08A2D0E94580060E08C2F80680E9478
:100210005800F701E056FC4F61E080810E945800D1
:100220002196C435D10519F70F5F1F4F84E5C80E1D
:10023000D11C06301105B1F620E030E080E090E0FE
:10024000AC01420F531FFA01E855FE4FDA01A056E8
:10025000BC4F4C91408301968435910589F72C5A07
:100260003F4F283F81E0380749F7DF91CF911F9139
:100270000F91FF90EF90DF90CF90BF90AF900895D7
:100280002FEF83EC99E0215080409040E1F700C0CF
:1002900000000E9453000E9461000E94B20000E032
:1002A00010E0C0E0D0E041E0BE01C8010E947C0047
:1002B0000E94C8002196C033D105A9F70F5F1F4FD8
:1002C0000335110571F7EBCF97FB072E16F4009459
:1002D00007D077FD09D00E94780107FC05D03EF4D5
:1002E000909581959F4F0895709561957F4F0895E2
:1002F000AA1BBB1B51E107C0AA1FBB1FA617B7074C
:1003000010F0A61BB70B881F991F5A95A9F7809567
:0C0310009095BC01CD010895F894FFCF3A
:10031C00006E8AEA8AEE006484E48484006E82EEC5
:10032C00A8EE00AEA2EEA2AE00EA4A4E42E2002EC9
:10033C00282EA26E00AEA8CEAAAE008E828282E2D9
:10034C0000AEEAEEAAAE00AEEAEEE2AE0044AAAE11
:10035C00AA4A00CCAAEC8A8E0046A8A8E86E00CC6B
:10036C00AAEACAAE00464844024E00EE2464044495
:10037C0000AAAA0AAA4600AA4AEA44A4000A0A0E3B
:10038C000E4A004A4A040A0A00EAEAE4E4E4000ECF
:10039C000204080E0006061E1E18180018181E1E51
:1003AC000606C0C6F6F6C6C606C6C6C0C6F6F6062D
:0803BC001E1E001E1E1E1E0085
:00000001FF
