:100000000C943B000C9458000C9458000C9458002D
:100010000C9458000C9458000C9458000C94580000
:100020000C9458000C9458000C9458000C945800F0
:100030000C9458000C9458000C9458000C945800E0
:100040000C9458000C9458000C9458000C945800D0
:100050000C9458000C9458000C9458000C945800C0
:100060000C9458000C945800C901D401DF01EA0136
:10007000F501BE01B40111241FBECFEFD8E0DEBFF1
:10008000CDBF12E0A0E0B1E0E4EAF8E002C00590E4
:100090000D92A030B107D9F723E0A0E0B2E001C093
:1000A0001D92A83FB207E1F70E9444030C9450044C
:1000B0000C940000FF920F931F93CF93DF93EC01FA
:1000C00018869A81911114C188E088872AE04B81B3
:1000D000411102C02887822F5E81252F30E0290F31
:1000E000311D2335310514F0846088879F81292FC5
:1000F00030E0240F311D2F32310514F081608887E4
:1001000083FD3AC05523C1F100E0992379F110E055
:1001100005C01F5F8F81181708F0EDC06981610F5E
:10012000888144E051E0800F0E943002F82E6B81FC
:10013000610F8A81815040E052E0800F0E943002BE
:10014000882339F3FF2029F36981610F8881815069
:1001500044E051E0800F0E9430028111DACF88859F
:1001600088608887982F9870911106C00F5F9E81D4
:10017000091710F49F81C9CF82FD3AC09E8199234F
:10018000B9F100E09F81992379F110E005C01F5F6C
:100190008F81181708F0B3C06981610F888144E02E
:1001A00051E0800F0E943002F82E6B81610F8A812E
:1001B0008F5F40E052E0800F0E943002882339F3C5
:1001C000FF2029F36981610F88818F5F44E051E04E
:1001D000800F0E9430028111DACF88858460888781
:1001E000982F9470911104C00F5F9E81091750F2EF
:1001F00081FD3BC09E81992309F471C000E09F817D
:10020000992379F110E005C01F5F8F81181708F05E
:100210007AC06981610F888144E051E0800F0E94BB
:100220003002F82E6B816150610F8A8140E052E00C
:10023000800F0E943002882339F3FF2029F369815F
:100240006150610F888144E051E0800F0E943002CC
:100250008111DACF888582608887982F92709111FA
:1002600004C00F5F9E81091750F280FD38C08E8157
:100270008823A9F100E08F81882369F110E004C090
:100280001F5F8F81181788F56981610F888144E0AD
:1002900051E0800F0E943002F82E6B816F5F610F7A
:1002A0008A8140E052E0800F0E943002882341F3AF
:1002B000FF2031F369816F5F610F888144E051E075
:1002C000800F0E9430028111DBCF88858160888792
:1002D0008170811104C00F5F8E81081760F2DF9179
:1002E000CF911F910F91FF90089588858170F1CF74
:1002F00022E080E0ECCE8885982F987035CF8885F5
:10030000982F94706FCF8885982F9270A8CF8CEE1D
:100310009DE00E94C7030E94C203AC01990F660BC7
:10032000770B80E090E00C94D203FC0122812250F4
:1003300022830C94CC02CF93DF93EC019CE39A834D
:1003400084E18B839C838D8318860E94C2038F7007
:10035000873008F0895090E08730910560F4FC0107
:10036000EC5CFF4F0C94700384E08F838E838CE4ED
:10037000888380E18983DF91CF91089586E08F8320
:1003800084E08E838BE0888382E18983DF91CF9143
:10039000089586E08F8384E08E8384E188838DE0F6
:1003A0008983DF91CF91089586E08F8384E08E83E7
:1003B00080E288838DE08983DF91CF91089586E084
:1003C0008F8384E08E838FE388838DE08983DF9140
:1003D000CF91089582E08F8388E08E838CE48883B8
:1003E0008DE08983DF91CF91089586E08F8384E04B
:1003F0008E8389E1888382E18983DF91CF9108959B
:1004000084B1836084B9289A2898289A81E28EBDA5
:100410000DB407FEFDCF80E98EBD0DB407FEFDCF04
:1004200080E28EBD0DB407FEFDCF8CE08EBD0DB415
:1004300007FEFDCF80E88EBD0DB407FEFDCF80E442
:100440008EBD0DB407FEFDCF089589EF91E01EBC6F
:10045000299A0DB407FEFDCF29980197C1F7089599
:10046000962F96959695969524E5929F400D511D51
:100470001124FA01E80FF11D677081E090E001C0DE
:10048000880F6A95EAF79081982381E009F480E06B
:100490000895CF93DF93DC0117968C9117978823EB
:1004A00009F45BC030E064E541E050E015962C9122
:1004B0001597832F90E0820F911D959587959595BF
:1004C00087959595879580648EBD0DB407FEFDCF09
:1004D00016968C9116978823C9F120E014969C916A
:1004E0001497920F90689EBD0DB407FEFDCF119634
:1004F0009C911197930FE92FE695E695E69584E593
:10050000E89FF0011124EC5FFE4F8C91820FE80F01
:10051000F11D9770EA0102C0CC0FDD1F9A95E2F73A
:10052000CE019081892361F014968C911497820FEB
:10053000843530F41596EC911597E30FE03380F095
:100540002F5F16968C911697281740F23F5F1796EB
:100550008C911797381708F4A9CFDF91CF910895A0
:100560009E2F9770EA0101C0CC0F9A95EAF7E695A5
:10057000E695E695C0956E9FF0011124E050FE4F80
:10058000E80FF11D80818C2380838EBD299A0DB4E4
:1005900007FEFDCF2998D4CFCF93DF93EC010E94C3
:1005A00049028F81882309F449C060E074E521E0A5
:1005B00030E04B81862F90E0840F911D95958795B3
:1005C000959587959595879580648EBD0DB407FEAA
:1005D000FDCF8E81882369F190E08A81890F806840
:1005E0008EBD0DB407FEFDCF8981860FE82FE695FD
:1005F000E695E69544E5E49FF0011124EC5FFE4F9B
:100600004881490FE40FF11D8770A90101C0440F13
:100610008A95EAF78081482341F08A81890F8435E1
:1006200020F44B81460F403390F09F5F8E819817E6
:10063000A0F26F5F8F81681708F4BBCF8A818C832B
:100640008B818D83CE01DF91CF910C945A00E42FE2
:10065000E695E695E6954770D90102C0AA0FBB1F43
:100660004A95E2F7AD017E9FF0011124E050FE4F64
:10067000E80FF11D8081482B40834EBD299A0DB4AF
:1006800007FEFDCF2998D1CFCF93DF93CDB7DEB74B
:1006900029970FB6F894DEBF0FBECDBF9CE39B83B6
:1006A00084E18C839D838E830E946B030E940002F1
:1006B0000E9487010E942502CE0101960E949B01A3
:1006C000898583FDF9CFCE0101960E949501898528
:1006D00083FDF2CFF8CF8CE284B981E58CBD08951B
:1006E000EE0FFF1F0590F491E02D09948F929F92D9
:1006F000AF92BF92CF92DF92EF92FF92CF93DF93B0
:10070000EC01688179818A819B8161157105810580
:10071000910521F464E279ED8BE597E02DE133EF6B
:1007200041E050E00E94ED0349015A019B01AC01F8
:10073000A7EAB1E40E940C046B017C01ACEEB4EFBB
:10074000A50194010E941A04DC01CB018C0D9D1DB2
:10075000AE1DBF1DB7FF03C00197A109B048888334
:100760009983AA83BB839F77DF91CF91FF90EF900E
:10077000DF90CF90BF90AF909F908F9008950E9490
:100780007603089580E091E00E9476030895A0E04A
:10079000B0E08093000190930101A0930201B09317
:1007A00003010895242F0E94E003252F0E94E003F7
:1007B0000C94DA030E94DF03272F0C94E003262F0A
:1007C000F999FECF1FBA92BD81BD20BD0FB6F89436
:1007D000FA9AF99A0FBE01960895052E97FB1EF41A
:1007E00000940E94040457FD07D00E941F0407FCD8
:1007F00003D04EF40C940404509540953095219507
:100800003F4F4F4F5F4F089590958095709561953C
:100810007F4F8F4F9F4F08950E944104A59F900DD9
:10082000B49F900DA49F800D911D11240895B7FFD2
:100830000C940C040E940C04821B930B0895A1E2FB
:100840001A2EAA1BBB1BFD010DC0AA1FBB1FEE1F4A
:10085000FF1FA217B307E407F50720F0A21BB30B95
:10086000E40BF50B661F771F881F991F1A9469F711
:1008700060957095809590959B01AC01BD01CF016D
:100880000895A29FB001B39FC001A39F700D811D69
:100890001124911DB29F700D811D1124911D089589
:0408A000F894FFCFFA
:1008A40001000000006E8AEA8AEE006484E4848415
:1008B400006E82EEA8EE00AEA2EEA2AE00EA4A4EB0
:1008C40042E2002E282EA26E00AEA8CEAAAE008E62
:1008D400828282E200AEEAEEAAAE00AEEAEEE2AEB8
:1008E4000044AAAEAA4A00CCAAEC8A8E0046A8A864
:1008F400E86E00CCAAEACAAE00E6E884828E800ED6
:10090400E4E46464006A6A6A6AE6E00A0A0AE4E4FF
:10091400008A8A8E8EEAE00A6A64EAEA00EAEA64F5
:100924006464600EE2E4080E008484E4E084800ED3
:100934006266E0E4606A0A808AE4E00AE4EE848A9B
:1009440000EEEE0E6E6E606060606060000D0D3D46
:100954003D313100070700F0F03C3C0000C1C1F01C
:10096400F6363707003D3DF1F101010000000707AD
:100974000001010000000000070706060001010154
:10098400010101000000010100000001010707004E
:1009940007070101001F1F000F0F0F0F00000000C9
:00000001FF
