:100000000C9434000C9451000C9451000C94510049
:100010000C9451000C9451000C9451000C9451001C
:100020000C9451000C9451000C9451000C9451000C
:100030000C9451000C9451000C9451000C945100FC
:100040000C9451000C9451000C9451000C945100EC
:100050000C9451000C9451000C9451000C945100DC
:100060000C9451000C94510011241FBECFEFD8E026
:10007000DEBFCDBF11E0A0E0B1E0E8E4F5E002C0F2
:1000800005900D92A83AB107D9F723E0A8EAB1E0AC
:1000900001C01D92A03AB207E1F70E9445020C94FC
:1000A000A2020C940000FF920F931F93CF93DF9353
:1000B000EC0118864A8141115FC088E088872AE0F8
:1000C00098E08B81811102C02887922F6E81262FA4
:1000D00030E0240F311D2335310514F094609887EA
:1000E0002F81422F50E0480F511D4F32510514F01F
:1000F0009160988793FD3AC06623C1F100E0222306
:1001000061F110E004C01F5F8F81181760F56981ED
:10011000610F888140E051E0800F0E943101F82E8C
:100120006B81610F8A81815048EA51E0800F0E9403
:100130003101882341F3FF2031F36981610F888108
:10014000815040E051E0800F0E9431018111DBCFEE
:10015000988598609887987049F40F5F8E8108178A
:1001600028F42F81CCCF98859870B9F3DF91CF9187
:100170001F910F91FF90089522E090E0A2CF84B1EB
:10018000836084B9289A2898289A81E28EBD0DB49C
:1001900007FEFDCF80E98EBD0DB407FEFDCF80E2E6
:1001A0008EBD0DB407FEFDCF8CE08EBD0DB407FEF5
:1001B000FDCF80E88EBD0DB407FEFDCF80E48EBD7F
:1001C0000DB407FEFDCF089580688EBD0DB407FE07
:1001D000FDCF089580648EBD0DB407FEFDCF089558
:1001E000843500F56033F0F4E62FE695E695E69564
:1001F000677021E030E001C0220F6A95EAF74423DE
:1002000091F094E5E99FF0011124E855FE4FE80FC5
:10021000F11D8081282B20832EBD299A0DB407FE65
:10022000FDCF29980895209594E5E99FF0011124C8
:10023000E855FE4FE80FF11D8081282320832EBD55
:10024000299A0DB407FEFDCF2998ECCF89EF91E0F4
:100250001EBC299A0DB407FEFDCF29980197C1F75E
:100260000895962F96959695969524E5929F400D24
:10027000511D1124FA01E80FF11D677081E090E033
:1002800001C0880F6A95EAF79081982381E009F40C
:1002900080E00895CF93DF93DC0117968C91179738
:1002A000882309F45BC030E064E541E050E0159636
:1002B0002C911597832F90E0820F911D959587952E
:1002C000959587959595879580648EBD0DB407FEAD
:1002D000FDCF16968C9116978823C9F120E01496CD
:1002E0009C911497920F90689EBD0DB407FEFDCFB0
:1002F00011969C911197930FE92FE695E695E69557
:1003000084E5E89FF0011124E050FF4F8C91820FAB
:10031000E80FF11D9770EA0102C0CC0FDD1F9A951E
:10032000E2F7CE019081892361F014968C911497A5
:10033000820F843530F41596EC911597E30FE03376
:1003400080F02F5F16968C911697281740F23F5F2A
:1003500017968C911797381708F4A9CFDF91CF9192
:1003600008959E2F9770EA0101C0CC0F9A95EAF785
:10037000E695E695E695C0956E9FF0011124E85547
:10038000FE4FE80FF11D80818C2380838EBD299A5A
:100390000DB407FEFDCF2998D4CFCF93DF93EC01A6
:1003A0000E944A018F81882309F449C060E074E506
:1003B00021E030E04B81862F90E0840F911D9595D0
:1003C0008795959587959595879580648EBD0DB495
:1003D00007FEFDCF8E81882369F190E08A81890F25
:1003E00080688EBD0DB407FEFDCF8981860FE82F92
:1003F000E695E695E69544E5E49FF0011124E0508A
:10040000FF4F4881490FE40FF11D8770A90101C01A
:10041000440F8A95EAF78081482341F08A81890F49
:10042000843520F44B81460F403390F09F5F8E81DE
:100430009817A0F26F5F8F81681708F4BBCF8A818D
:100440008C838B818D83CE01DF91CF910C945300EF
:10045000E42FE695E695E6954770D90102C0AA0F0C
:10046000BB1F4A95E2F7AD017E9FF0011124E855CC
:10047000FE4FE80FF11D8081482B40834EBD299A25
:100480000DB407FEFDCF2998D1CFCF93DF93CDB721
:10049000DEB729970FB6F894DEBF0FBECDBF81E35C
:1004A000898389E08A838FE08B831C828D831E82FF
:1004B00086E08F8384E088870E949D020E94BF00AF
:1004C0000E9426018AE00E94E40080E00E94EA0087
:1004D00041E062E08AE00E94F00041E063E08AE0EF
:1004E0000E94F00041E064E08AE00E94F0000CC04D
:1004F0008B8181508B832FEF80E792E021508040E9
:100500009040E1F700C00000CE0101960E94CD01AD
:10051000898583FFEDCF83B7816083BF889583B7DB
:100520008E7F83BF80E090E029960FB6F894DEBFFF
:100530000FBECDBFDF91CF9108958CE284B981E5E4
:080540008CBD0895F894FFCF73
:10054800006E8AEA8AEE006484E48484006E82EE97
:10055800A8EE00AEA2EEA2AE00EA4A4E42E2002E9B
:10056800282EA26E00AEA8CEAAAE008E828282E2AB
:1005780000AEEAEEAAAE00AEEAEEE2AE0044AAAEE3
:10058800AA4A00CCAAEC8A8E0046A8A8E86E00CC3D
:10059800AAEACAAE00464844024E00EE2464044467
:1005A80000AAAA0AAA4600AA4AEA44A4000A0A0E0D
:1005B8000E4A004A4A040A0A00EAEAE4E4E4000EA1
:1005C8000204080E0006061E1E18180018181E1E23
:1005D8000606C0C6F6F6C6C606C6C6C0C6F6F606FF
:0805E8001E1E001E1E1E1E0057
:00000001FF
