S00D000074747269732E73726563E1
S11300000C9434000C9451000C9451000C94510045
S11300100C9451000C9451000C9451000C94510018
S11300200C9451000C9451000C9451000C94510008
S11300300C9451000C9451000C9451000C945100F8
S11300400C9451000C9451000C9451000C945100E8
S11300500C9451000C9451000C9451000C945100D8
S11300600C9451000C94510011241FBECFEFD8E022
S1130070DEBFCDBF11E0A0E0B1E0E2EDF3E002C0ED
S113008005900D92A83AB107D9F723E0A8EAB1E0A8
S113009001C01D92A03AB207E1F70E949E010C94A0
S11300A0E7010C940000289A2898289A81E28EBDD2
S11300B00DB407FEFDCF80E98EBD0DB407FEFDCF64
S11300C080E28EBD0DB407FEFDCF8CE08EBD0DB475
S11300D007FEFDCF80E88EBD0DB407FEFDCF80E4A2
S11300E08EBD0DB407FEFDCF089589EF91E01EBCCF
S11300F0299A0DB407FEFDCF29980197C1F70895F9
S1130100CF93DF93DC0117968C911797882309F41A
S11301105BC030E064E541E050E015962C91159702
S1130120832F90E0820F911D9595879595958795DE
S11301309595879580648EBD0DB407FEFDCF169608
S11301408C9116978823C9F120E014969C911497FA
S1130150920F90689EBD0DB407FEFDCF11969C9141
S11301601197930FE92FE695E695E69584E5E89FC8
S1130170F0011124E050FF4F8C91820FE80FF11D24
S11301809770EA0102C0CC0FDD1F9A95E2F7CE0109
S11301909081892361F014968C911497820F843591
S11301A030F41596EC911597E30FE03380F02F5F50
S11301B016968C911697281740F23F5F17968C91EC
S11301C01797381708F4A9CFDF91CF9108959E2F80
S11301D09770EA0101C0CC0F9A95EAF7E695E69587
S11301E0E695C0956E9FF0011124E855FE4FE80F87
S11301F0F11D80818C2380838EBD299A0DB407FE66
S1130200FDCF2998D4CFCF93DF93EC010E948000D7
S11302108F81882309F44AC060E074E521E030E06E
S11302204B81862F90E0840F911D95958795959528
S113023087959595879580648EBD0DB407FEFDCF97
S11302408E81882371F190E08A81890F80688EBD48
S11302500DB407FEFDCF8981860FE82FE695E6955C
S1130260E69544E5E49FF0011124E050FF4F4881F6
S1130270490FE40FF11D8770A90101C0440F8A954D
S1130280EAF7808148238A81890F4423B1F08435B9
S113029020F44B81460F4033A0F19F5F8E81981765
S11302A098F26F5F8F81681708F4BACF8A818C83C4
S11302B08B818D83DF91CF910895843570F7EB8125
S11302C0E60FE03350F74E2F4770D90102C0AA0F52
S11302D0BB1F4A95E2F7AD01E695E695E695409594
S11302E07E9FF0011124E855FE4FE80FF11D808137
S11302F0842380838EBD299A0DB407FEFDCF2998EF
S1130300CCCFE42FE695E695E6954770D90102C077
S1130310AA0FBB1F4A95E2F7AD017E9FF00111249D
S1130320E855FE4FE80FF11D8081482B40834EBDF8
S1130330299A0DB407FEFDCF2998AFCF0F931F93D1
S1130340CF93DF93CDB7DEB728970FB6F894DEBF0F
S11303500FBECDBF19821A8286E08B839AE09C83FC
S11303608D839E838F8384E088878FE284B981E5BF
S11303708CBD0E9453000E947500CE0101960E941C
S1130380030108E110E08B818F5F8B838FE99FE08D
S11303900197F1F700C00000CE0101960E9403010D
S11303A00150110981F783B7816083BF889583B7B2
S11303B08E7F83BF80E090E028960FB6F894DEBF6E
S11303C00FBECDBFDF91CF911F910F910895F89487
S10503D0FFCF59
S11303D2006E8AEA8AEE006484E48484006E82EE0B
S11303E2A8EE00AEA2EEA2AE00EA4A4E42E2002E0F
S11303F2282EA26E00AEA8CEAAAE008E828282E21F
S113040200AEEAEEAAAE00AEEAEEE2AE0044AAAE56
S1130412AA4A00CCAAEC8A8E0046A8A8E86E00CCB0
S1130422AAEACAAE00464844024E00EE24640444DA
S113043200AAAA0AAA4600AA4AEA44A4000A0A0E80
S11304420E4A004A4A040A0A00EAEAE4E4E4000E14
S11304520204080E0006061E1E18180018181E1E96
S11304620606C0C6F6F6C6C606C6C6C0C6F6F60672
S10B04721E1E001E1E1E1E00CA
S9030000FC
